:1033BC004F534857487562003A002E0053210020A5
:1033CC00004121002020202020202020202020200F
:1033DC002020202020002020202020202020202001
:1033EC0020202020005341005769466953746172B4
:0333FC00747200E8
:043780004100D40030
:10391C007401900080F0A374FFF0A3227A3379CB6A
:10392C007BFF90009B7408F022A3F07B18E4FDFF52
:01393C002268
:10386300E4F593F594F591759248C293123BE712F0
:10387300393D12000E123B7912397F1238B11238DA
:07388300391224390230CA9A
:10261000740812391E740AF0A374FEF07B80E4FD86
:10262000FF122A957FE87E03123B011230CA900008
:10263000807404123921740EF0A374FEF07B807D47
:1026400001E4FF122A957BFF7A3379BC90009B74DA
:1026500010F07D057F20122DB07FDC7E05123B013E
:102660001230CAE4FB7D027F0A122C397B017D0205
:102670007F1C122C397B027D027F2E122C397B03AA
:102680007D027F3E122C397B047D027F50122C3953
:102690007B057D027F62122C397B027D047F1C1238
:1026A0002C397D041226D67D047F3C122DB07BFF91
:1026B0007A3379C690009B7410F07D047F58122DF8
:1026C000B07B037D067F1C122C397D061226D67D39
:1026D000067F3C022DB07B047F2E122C397BFF7AC3
:0A26E0003379C490009B7410F022BF
:10223100123C199000C9EFF0B4070040030222E8F4
:10224100902248F828287302225D02226A0222772E
:1022510002228202229D0222C00222CF7A3379C851
:1022610012230C122335C280227A3379CD12230C2A
:10227100122335C2812212391C740AF0A3749E8084
:102281004712391C740AF074B6123935122A957A3C
:102291003379D012392C12232AC2832212391C74A9
:1022A1000AF0A374CEF07B10E4FDFF122A957BFFA8
:1022B1007A3379E212392E12232AC283C28422127E
:1022C100391C740AF0A374E6123936022A957BFF91
:1022D1007A3379F112392EE4FD7F6E122DB0123965
:1022E10028E4FD7F7A801B12391C740AF0749E1257
:1022F1003935122A957BFF7A3379F412392EE4FDB0
:102301007F24122DB07580FFC282227BFF90009B3B
:102311007408F0E4FD7F6E122DB07BFF7A3379CB28
:1023210090009B7408F0E4FD22E4FD7F18122DB0AB
:0D2331007580FF227F7A122DB07580FF228B
:033C240002189BE8
:10337700123863122610123C24121AB9121DB61203
:1033870022319000D4E0B401F0D28412391C740ABF
:10339700F0A374CE123936122A9512189B7FF47E49
:1033A70001123B01123928E4FD7F12122DB0E4907F
:0533B70000D4F080C409
:0D3B9600AE07123BA3AF05123B57020031F2
:0F3B790075BA8090FE8074F5F090FE82E4F02221
:0300C30002380DF3
:0D380D00C0E0C083C082C0D075D000C007ED
:10381A00AFBA43BA8090FE82E030E606E054BFF0C9
:04382A00C2008FBA8F
:0B382E00D007D0D0D082D083D0E03291
:0C3BA300D20090FE817481F02000FD2211
:103B570090FE86EFF0D20090FE817482F02000FD87
:013B6700223B
:103B6800D20090FE817484F02000FD90FE87E0FF73
:013B7800222A
:0B002600123B57120031AF06123B578F
:1000310090FE82E4F0D20090FE817485F02000FDF4
:01004100229C
:0C3BAF00D20090FE817486F02000FD2200
:0B3BC700123B96E4FF120026023BAF09
:0B3BD200123B967F40120026023BAF22
:103B2F00200052657365742057694669004E4F0037
:043B3F004F464600A7
:10344000E47F2C7E01FDFC900079E0F8A3E0F9A375
:10345000E0FAA3E0FB2290007DE0FCA3E0FDA3E006
:10346000FEA3E0FF227A3B792F7BFF90009B74083C
:10347000F0E4FD22E0FBA3E0FAA3E0F9EA494B22E5
:10361500123C19EF6404702D90008004F0A374FF30
:10362500F0A3740AF0A374CEF07B18E4FDFF122A10
:1036350095D28412189B7FF47E01123B01123465EA
:063645007F12122DB022DD
:103AE8007A3B79311234697F24122DB0123B881247
:093AF8003C19EF6003123C192295
:103839009000DC12181500000000E49000D5F0C2D9
:1038490001A374FFF0A3743AF0A374E8F0A374FF22
:0A385900F0A37436F0A37415F022FA
:06301F0090007D1218096B
:10302500123C1F900081121809123456A312344A1B
:10303500C31217B2900081E0401612345A90007DF9
:1030450012344AEF9BFFEE9AFEED99FDEC98801441
:1030550012344B123456121797EB2FFFEA3EFEE956
:0F3065003DFDE83CFCA31218099000811234597C
:013074002239
:101DB60020A103123AE820A21DD2931234657F7A3D
:101DC600122DB07BFF7A3B793C12346B7F6E122D5D
:101DD600B07D01121ED220A315C2937BFF7A3B79F8
:101DE6003F12346B7F6E122DB0E4FD121ED29000AE
:101DF600D5E024F0601C24D060222440703220A05C
:101E06002F9000D57410F0123C1F9000DC121809B8
:101E1600801E30A01B9000D57420801130A0119038
:101E260000DC12181500000000E49000D5F0C20195
:101E36009000D5E0FF64106005EF644070279000C5
:101E4600DC123459121EDF123440C31217B2407B23
:101E56009000D57440F0A3123474606F20016C12A8
:101E66003AE8D201229000D5E06420705E9000DC52
:101E7600123459121EDF9000DC1218150000000003
:101E8600E49000D5F07F05FE123445C31217B24028
:101E960023E47F2C7E01FDFC900079E0F8A3A3A348
:101EA600E01217B2500E9000D9123474601D200152
:101EB6001A023615123440C31217B2400E9000D6DD
:0B1EC6001234746006200103123AE899
:101ED100227F151235317FF47E01123B012212302F
:081EE1001F900079121809227C
:102E2200F583E5822FF582E43583F583E493FF7E13
:102E320000E4FDFC2204FF900095E0FEEF8EF0A47A
:102E4200FF90008FE02FFFA3E0FD22900097E02487
:102E520030FB900094E09000A0F022900093E014E8
:102E6200FF900096E0FEC39F229000A1E075F01053
:102E7200A42FF582E435F0F583E58222E4F0A3E0A5
:102E82002402F0229000A2E0FFC322EFF0A3EDF0B3
:022E9200A32279
:1038FA009000A4EEF0A3EFF0ED64014C9000A470E8
:10390A0008A3E0FF7D78023BC7A3E0FF7D78123B66
:02391A00D222B7
:1030CA00E4900079F0900079E0FFC394085044EF4F
:1030DA0024B0FFE433FE7D017C001238FA7D017CC6
:1030EA0000E4FFFE1238FA7D017C007F107E001298
:1030FA0038FAE490007AF0E4FDFCFFFE1238FA9008
:10310A00007AE004F0E0C3948040EC900079E00497
:03311A00F080B290
:01311D00228F
:103680009000A3EFF0ED24B0FFE433FE1236A8540F
:10369000F0C4540F7E004410FF1236A8540FFF7E72
:1036A000007D017C000238FA7D017C001238FA901E
:0436B00000A3E02271
:0B288E0090009EEDF090009DEFF0FD2B
:10289900E49000A1F0A3F0EB24E09000A1F0EDD3C7
:1028A900947F4007E490009D122E7F9000A0E06481
:1028B90010704812292D122E8694085013122E6B6F
:1028C90024EEF582E5833402122E2C12293E80E68D
:1028D90090009DE0FFA3E004FD123680E49000A281
:1028E900F0122E869408503B122E6B24F6F582E5E1
:1028F900833402122E2C12293E80E612292D122E23
:10290900869406501E9000A1E075F006A424C6F531
:1029190082E5F03400122E221238FA9000A2E00467
:03292900F080DB60
:10292C002290009DE0FFA3E0FD123680E49000A20F
:0C293C00F0221238FA9000A2E004F02211
:0E2DB000900096122E8DEBF0A3EAF0A3E9F04E
:102DBE00E490009CF0900098E0FBA3E0FAA3E0F909
:102DCE0090009CE0F5827583001215B7FB6044906D
:102DDE000096E0FFA3E0FD90009BE09000A0F012B3
:102DEE00288E90009BE0B40812900096E02406F026
:102DFE00E0D3947A4015122E7E8010900096E02437
:102E0E0008F0E0D394784003122E7E90009CE004EC
:032E1E00F080A29F
:012E2100228E
:0332EB00900099B7
:1032EE00122E8D1218150000000190009AE0FF14A6
:1032FE00F0EF6020A3E0F8A3E0F9A3E0FAA3E0FB6F
:10330E00900099E0FFE4FCFDFE12167A90009B12ED
:10331E00180980D690009BE0FCA3E0FDA3E0FEA37D
:02332E00E0FFBE
:01333000227A
:0B20070090008F122E8DEAF0A3EBF08A
:10201200E4900098F0900094E0FEB40806A37406E1
:10202200F080069000957408F0900091E0FCA3E027
:10203200FDC3EC648094805065C3E49DFDE49C90F4
:102042000091F0A3EDF090008FE0FFA3E0FD90007F
:10205200A0EEF07B2D12288EE4900096F090009373
:10206200E0122E6240030220ED1220EE701A122EB0
:102072005D5015A3E0700BEE122E37122E547B200A
:1020820080109000987401F0900096E0122E3712A2
:102092002E4D12288E900096E004F002205FE4900C
:1020A2000096F0900093E0122E62503F1220EE70E4
:1020B2001D122E5D5018A3E0700E900095E0122EB6
:1020C2003F122E547B2080179000987401F09000EC
:1020D20096E0FF900095E08FF0122E41122E4D12E5
:0B20E200288E900096E004F00220A57C
:1020ED0022C3EF9E14FD7F0A1232EBA804A905AAA4
:1020FD0006AB07900091E0FEA3E0FFEE3395E0FD07
:10210D00FC121705E47B0AFAF9F8121705900097EF
:05211D00EBF0A3E0223D
:0D2C3900900091EBF090008FEFF0A3EDF014
:102C4600E4900093F0123680E4900092F0900092A7
:102C5600E0FFC394105018900091E075F040A42452
:102C6600DEF582E5F03408122E22122CA980DE90C1
:102C7600008FE0FFA3E004FD123680E4900092F09E
:102C8600900092E0FFC394105018900091E075F008
:102C960040A424FEF582E5F03408122E22122CA957
:022CA60080DECE
:102CA800221238FA900093E004F0900092E004F0C9
:012CB80022F9
:0A2A950090007DEFF090007FEBF061
:102A9F00E4900084F0A3F0900080E0FF54077008EA
:102AAF00EF131313541F800A900080E01313135475
:102ABF001F04900087F0900087EDF0900080E0FFFA
:102ACF00900087E0FDC39F504E90007DE0FF1236CF
:102ADF008090007DE0900086F090007FE0FF9000F6
:102AEF0086E0C39F5029900081E0FBA3E0FAA3E0AA
:102AFF00F9A3E475F00112166485F082F5831215BF
:102B0F00B7122E301238FA900086E004F080CA9087
:072B1F000087E004F080A430
:012B2600228C
:102439007FC87E00123B017FAE1224D9E4FFFE1251
:1024490038FA7F101224D97F407E001238FA7FB003
:102459001224E77F817E001238FA7FFF1224E77F7A
:10246900A17E001238FA7FA61224F57FA87E0012F9
:1024790038FA7F3F1224F57FC87E001238FA7FD3DD
:10248900122503E4FFFE1238FA7FD51225037F8057
:102499007E001238FA7FD91225117FF17E00123899
:1024A900FA7FDA1225117F127E001238FA7FDB12C9
:1024B900251F7F307E001238FA7F8D12251F7F1469
:1024C9007E001238FA7D017C007FAF7E000238FA67
:1024D9007D017C007E001238FA7D017C00227D019D
:1024E9007C007E001238FA7D017C00227D017C008F
:1024F9007E001238FA7D017C00227D017C007E007D
:102509001238FA7D017C00227D017C007E001238A0
:10251900FA7D017C00227D017C007E001238FA7D63
:04252900017C00220F
:063C07004552524F52002D
:10356B00E41213A17B007AFF797F78470212FF7474
:10357B0002900093F0A37410F02290008BE0FCA358
:10358B00E0FDEC0213A1EEF0A3EFF09000CAE022F5
:09359B007C007D0AAE0202161844
:10397F00123BA37F881239977F271239977F37120F
:0F398F003B57120031023BAF123B57120031225F
:0E325B0090008FEBF0A3EAF0A3E9F0A3EDF0F2
:103269007FFFE4FE900092E0FDEEC39D502B90009D
:103279008FE0FBA3E0FAA3E0F98E827583001215B3
:10328900B76FFF7D08EF30E70725E06431FF800461
:09329900EF25E0FFDDEF0E80CB14
:0132A2002209
:10189B00123BA37F88121AB27FE0121AB2E4FF1236
:1018AB003B57120031123BA37F89123B5712003179
:1018BB00123B6890007D121AA090007E121AA09025
:1018CB00007F121AA9900080121AA9900081EFF0E4
:1018DB00120031123B68900082EFF0123BAF7B019C
:1018EB007A00797D7D0212325B90007FE06F60039E
:1018FB00021A8C7B017A0079807D0212325B900098
:10190B0082E06F6003021A8C90007DE0FEA3E0FD85
:10191B00AC06900080E0FEA3E0FBEBFF900087EEAF
:10192B00F0A3EFF0AE04AF0512356B7B007AC079F4
:10193B00DA78441211F6E4FBFA79E178C312110557
:10194B001213DA9000CA123591FAA3E0FBFF12359D
:10195B009B90008BEEF0A3EFF0AF0312359BA3EC43
:10196B00F0A3EDF0900087E0FCA3E0FD12356BE4F3
:10197B00FBFA79C878421211F61213DA9000CCEF09
:10198B00F01235857B337AB3796D7843121105C02C
:10199B0004C005C006C0071235857BF67A28798A04
:1019AB0078411211F6D003D002D001D0001212FFF1
:1019BB00122A33C004C005C006C0079000CCE075E6
:1019CB00F06484FCE41213A67B297A5C79C378401B
:1019DB001211F6D003D002D001D0001211F612135F
:1019EB00DA900089123591FEA3E0FFEE3395E0FD0E
:1019FB00FC90009A1218097F01122CB99000CCE0D0
:101A0B00FFE4FCFDFE90009A1218097F02122CB91C
:101A1B0090008BE0FAA3E0FB12357A7D047F46122F
:101A2B00200790008DE0FAA3E0FB740112357C7D5A
:101A3B00047F5E122007D390008CE0940090008B03
:101A4B00E06480948040119000A07410F07B607D66
:101A5B00047F6612288E80097B067D047F5C122C26
:101A6B00399000CCE0FB7A0012357A7D067F461266
:101A7B0020079000A07410F07B257D067F5602286E
:101A8B008E7BFF7A3C790790009B7410F07D047F6E
:041A9B0046122DB012
:101A9F0022EFF0120031123B6822EFF012003112E8
:0A1AAF003B6822123B57120031225F
:0E3784004400F6000000004400F200000000C7
:10374E009000F6E0FCA3E0FDA3E0FEA3E02224013E
:10375E00FFE43EFEE43DFDE43CFC021809FF1217B7
:10376E0005AC00AD01AE02AF03E4FBFAF9F8C302FB
:02377E0017B280
:1038B100538E7F5389F0E4F58A758CB8C28DD28C12
:1038C100D2A99000F6121815000000009000D2E471
:0638D100F0A3740FF022C9
:03000B000229487F
:10294800C0E0C0F0C083C082C0D075D000C000C055
:1029580001C002C003C004C005C006C00712374E3C
:102968009000F612375CE47B64FAF9F812374E12DD
:10297800376B70649000F21237519000F212375C96
:102988009000D2E0FEA3E0FBAA06E4F89000F21261
:10299800375112376B70059000D404F0E47F3CFE89
:1029A800FDFC9000F2E0F8A3E0F9A3E0FAA3E0FB55
:1029B800C31217B240229000F2121815000000004E
:1029C8009000CD1237512401FFE43EFEE43DFDE4C2
:1029D8003CFC9000CD121809D007D006D005D004D1
:1029E800D003D002D001D000D0D0D082D083D0F094
:0329F800D0E032FA
:053C1F0012374EFF22E8
:1000C6000000000000000000002F000000000700F4
:1000D600070000147F147F1400242A7F2A1200626E
:1000E600640813230036495522500000050300001A
:1000F60000001C224100000041221C000014083EA2
:1001060008140008083E0808000000A06000000867
:1001160008080808000060600000002010080402BB
:10012600003E5149453E0000427F40000042615179
:100136004946002141454B31001814127F10002713
:1001460045454539003C4A494930000171090503D6
:1001560000364949493600064949291E0000363607
:10016600000000005636000000081422410000146A
:100176001414141400004122140800020151090647
:1001860000324959513E007C1211127C007F4949C8
:100196004936003E41414122007F4141221C007FF9
:1001A60049494941007F09090901003E4149497A07
:1001B600007F0808087F0000417F41000020404181
:1001C6003F01007F08142241007F40404040007FED
:1001D600020C027F007F0408107F003E4141413E31
:1001E600007F09090906003E4151215E007F091979
:1001F60029460046494949310001017F0101003F76
:100206004040403F001F2040201F003F4038403FF5
:100216000063140814630007087008070061514959
:10022600454300007F41410000552A552A550000EC
:1002360041417F000004020102040040404040406A
:10024600000001020400002054545478007F484402
:10025600443800384444442000384444487F003839
:100266005454541800087E0901020018A4A4A47C62
:10027600007F080404780000447D4000004080842C
:100286007D00007F102844000000417F4000007C74
:1002960004180478007C0804047800384444443880
:1002A60000FC242424180018242418FC007C0804CC
:1002B600040800485454542000043F444020003CA5
:1002C6004040207C001C2040201C003C4030403C2C
:1002D600004428102844001CA0A0A07C00446454BC
:1002E6004C44141414141414000000000000000000
:1002F6000000000000000000000000F80000000000
:10030600000000333000000000100C06100C060040
:10031600000000000000000040C07840C0784000A7
:10032600043F04043F040400007088FC0830000009
:10033600001820FF211E0000F008F000E018000061
:1003460000211C031E211E0000F00888700000001A
:100356001E2123241927211010160E00000000006C
:100366000000000000000000000000E01804020089
:10037600000000071820400000020418E0000000FA
:100386000040201807000000404080F080404000F8
:100396000202010F01020200000000F0000000004E
:1003A6000101011F01010100000000000000000022
:1003B60080B0700000000000000000000000000097
:1003C6000001010101010101000000000000000020
:1003D60000303000000000000000000080601804BB
:1003E600006018060100000000E010080810E00098
:1003F600000F102020100F00001010F80000000061
:100406000020203F202000000070080808887000A7
:100416000030282422213000003008888848300027
:100426000018202020110E000000C02010F8000047
:1004360000070424243F240000F8088888080800E0
:100446000019212020110E0000E0108888180000F5
:10045600000F112020110E0000380808C8380800C7
:100466000000003F00000000007088080888700047
:10047600001C222121221C0000E010080810E000C8
:100486000000312222110F00000000C0C000000051
:100496000000003030000000000000800000000076
:1004A600000080600000000000008040201008006E
:1004B6000001020408102000404040404040400037
:1004C6000404040404040400000810204080000012
:1004D6000020100804020100007048080808F00017
:1004E6000000003036010000C030C828E810E000E7
:1004F6000718272423140B000000C038E000000072
:10050600203C23020227382008F8888888700000DB
:10051600203F202020110E00C030080808083800AF
:10052600071820202010080008F808080810E00026
:10053600203F202020100F0008F88888E8081000C7
:10054600203F20202320180008F88888E80810009B
:10055600203F200003000000C030080808380000D3
:1005660007182020221E020008F808000008F808D4
:10057600203F210101213F20000808F8080800005B
:100586000020203F2020000000000808F80808008E
:10059600C08080807F00000008F888C02818080006
:1005A600203F20012638200008F80800000000003F
:1005B600203F20202020300008F8F800F8F8080036
:1005C600203F003F003F200008F830C00008F80830
:1005D600203F200007183F00E01008080810E00040
:1005E6000F10202020100F0008F808080808F00057
:1005F600203F210101010000E01008080810E0007A
:100606000F18242438504F0008F88888888870000E
:10061600203F2000030C30200070880808083800AE
:100626000038202121221C00180808F808081800A4
:100636000000203F2000000008F808000008F80825
:10064600001F202020201F000878880000C83808D6
:10065600000007380E010000F80800F80008F8004E
:10066600033C0700073C03000818688080681808E8
:1006760020302C03032C30200838C800C838080066
:100686000000203F2000000010080808C8380800B5
:100696002038262120201800000000FE0202020059
:1006A6000000007F40404000000C30C00000000009
:1006B600000000010638C00000020202FE00000031
:1006C600004040407F0000000000040202020400D7
:1006D6000000000000000000000000000000000014
:1006E600808080808080808000000C12120C0000C8
:1006F60000000000000000000000808080800000F4
:100706000019242222223F2008F8008080000000E1
:10071600003F112020110E000000008080800000A4
:10072600000E112020201100000000808088F800B3
:10073600000E112020103F200000808080800000E5
:10074600001F222222221300008080F08888881849
:100756000020203F20200000000080808080800054
:10076600006B94949493600008F8008080800000E9
:10077600203F210000203F200080989800000000C4
:100786000020203F202000000000008098980000F4
:1007960000C08080807F000008F800008080800014
:1007A600203F24022D302000000808F80000000039
:1007B6000020203F202000008080808080808000F4
:1007C600203F20003F20003F808000808080000086
:1007D600203F210000203F20000080808080000014
:1007E600001F202020201F00808000808000000045
:1007F60080FFA12020110E00000000808080800074
:10080600000E112020A0FF80808080008080800064
:1008160020203F2120000100000080808080800091
:100826000033242424241900008080E08080000006
:100836000000001F20200000808000000080800053
:10084600001F202020103F208080800000808080B4
:1008560000010E3008060100808000800080808044
:100866000F300C030C300F00008080008080800069
:100876000020312E0E312000808080000080808094
:1008860080818E7018060100008080808080800044
:100896000021302C2221300000000000807C020262
:1008A60000000000003F404000000000FF00000084
:1008B60000000000FF0000000002027C8000000033
:1008C6000040403F0000000000060101020204044F
:1008D60000000000000000001060028C00201028BC
:1008E60024E324281020200000000000000000005F
:1008F600000000000000000004047E0120110D41EC
:10090600817F0105093100000000000000000000A1
:10091600000000000000000000C2BA8282FE828051
:10092600FC061544847C0000000000000000000066
:10093600000000000000000020100846817F001023
:100946001312125292423E00000000000000000006
:1009560000000000000000001060028C0000FE9203
:1009660092929292FE00000000000000000000003B
:10097600000000000000000004047E01407E4242A8
:100986007E427E42427E40000000000000000000E1
:1009960000000000000000001060028C00FE929231
:1009A60092929292FE0000000000000000000000FB
:1009B600000000000000000004047E014448507F4F
:1009C60040407F5048444000000000000000000006
:1009D60000000000000000000000FC242424FC2588
:1009E6002624FC242424040000000000000000004B
:1009F600000000000000000040308F80844C552528
:100A06002525554C80808000000000000000000075
:100A16000000000000000000404042CC0040404082
:100A260040FF404040404000000000000000000041
:100A360000000000000000000000007F2010000001
:100A460000FF0000000000000000000000000000A1
:100A56000000000000000000060909E6F80C040288
:100A660002020202041E0000000000000000000056
:100A76000000000000000000000000071F302040BA
:100A86004040404020100000000000000000000030
:100A960000000000000000000003050911FF110915
:100AA6000503885020508800000000000000000068
:100AB6000003050911FF118905C300E000F000F8E5
:100AC60000000000000000000003050911FF118965
:100AD60005C300E000F000F80000021F42F84000E5
:100AE60000FE8282828292BA9282828282EE3800EE
:100AF6000000000000000000FEFFFFFFFFFFFFFFF9
:100B0600FFFFFFFFFFFFFFFFFFFFFFFFFFFFFFFFEF
:100B1600FFFFFFFFFFFFFFFFFFFFFFFFFFFFFFFFDF
:100B2600FFFFFFFFFFFFFFFFFFFFFFFFFFFFFFFFCF
:100B3600FFFFFFFFFFFFFFFFFFFFFFFFFFFFFFFFBF
:100B4600FFFFFFFFFFFFFFFFFFFFFFFFFFFFFFFFAF
:100B5600FFFFFFFFFFFFFFFFFFFFFFFFFFFFFFFF9F
:100B6600FFFF7F7F7F7F7F7F7FFFFFFEFEFEFEFC16
:100B7600FCF8F0E0C0800000FFFFFFFFFFFFFFFF73
:100B8600FFFFFFFFFFFFFFFFFFFF7F7F7FFFFFFFEF
:100B9600FFFFFFFFFFFFFFFFFFFFFFFFFFFFFFFF5F
:100BA600FFFFFFFFFFFFFFFFFFFFFFFFFFFFFFFF4F
:100BB600FFFFFFFFFFFFFFFFFFFFFFFFFFFFFFFF3F
:100BC600FFFFFFFFFFFFFFFFFFFFFFFFFFFFFFFF2F
:100BD600FFFFFFFFFFFFFFFFFFFFFFFFFFFFFFF02E
:100BE600F070787878787878F0F0E0C18103070FB4
:100BF6003FFFFFFFFFFFFEE0FFFFFFFFFFFFFFFFDF
:100C0600FFFF7F3F3F3F3F3F0100000000003F3FA7
:100C16003F3F3F3F3F3F3F3F7FFFFFFFFF7F3F3F5E
:100C26003F7FFFFFFFFFFFFFFFFFFFFFFF7F3F3F0E
:100C36003F7FFFFFFFFF7F3F3F3F7FFFFFFFFFFF3E
:100C4600FFFFFFFFFFFF7F3F3F3F7FFFFFFFFFFFEE
:100C5600FFFFFFFF7F7F3F3F3F1F1F1F3F3F3F3F7E
:100C66007FFCF8F8F8F8F080808187FFFFFE80802F
:100C760080C0FFFFFFFFFFFFFFFFFFFFFFFFFFFF3C
:100C8600FFFFF8F0F0F0F0F0000000000000F0F0D8
:100C9600F0F0F0F0F0F0F0F0F8FFFFFF03000000D6
:100CA6000000F8FFFFFFFFFFFFFFFFFF000000004F
:100CB6000000FFFFFF7F000000000080FFFFFFFF36
:100CC600FFFFFFFFFF010000000000FCFFFFFF1F0A
:100CD6000703010000C0E0F0F0F0F8F0F0F0E0C02B
:100CE60000000001071FFFFFFFFFFFFFFFFFFFFFE1
:100CF600FFFFFFFFFFFFFFFFFFFFFFFFFFFFFFFFFE
:100D0600FFFFFFFFFFFFFFFF8000000000001F7FC7
:100D16007FFFFFFFFFFFFFFFFFFFFFFFC000000099
:100D260000000F3F7FFFFFFFFF7F3F1F0000000017
:100D360000C0FFFFFFE000000000000F3F7FFFFF45
:100D4600FFFF7F3F1F000000000000FFFFFFF08055
:100D560000000000071F3F7F7F7F7FFFFFFFFFFF31
:100D6600000000000000FFFFFFFFFFFFFFFFFFFF87
:100D7600FFFFFFFFFFFFFFFFFFFFFFFFFFFFFFFF7D
:100D8600FFFFFFFFFFFFFFFFFFFEFCF8F0E0E0C004
:100D9600C0C0C0C0C0C0C0C0E1FFFFFFFFFEFCF87E
:100DA600F0E0E0C0C0C0C0C0C0C0C0E0E0F0F8FCE9
:100DB600FFFFFFFFFFFFFFFCF8F0E0E0C0C0C0C090
:100DC600C0C0E060000000000000E0FFFFFFFFFF82
:100DD600FEFCF8F8F0F0E0E0E0E0E0E0F1FFFFFF15
:100DE600F0F0E0E0F0F8FFFFFFFFFFFFFFFFFFFF7F
:100DF600FFFFFFFFFFFFFFFF077FFFFFFFFFFFFF75
:100E0600FFFFFFFFFFFFFFFFFFFFFFFFFFFFFFFFEC
:100E1600FFFFFFFFFFFFFFFFFFFFFFFFFFFFFFFFDC
:100E2600FFFFFFFFFFFFFFFFFFFFFFFFFFFFFFFFCC
:100E3600FFFFFFFFFFFFFFFFFFFFFFC381818181F0
:100E46008180C0C0E0E0F0F8FCFEFFFFFFFFFFFF7F
:100E5600FFFFFFFFFFFFFFFFFFFFFFFFFFFFFFFF9C
:100E6600FFFFFFFFFFFFFFFFFFFFFFFFFFFFFFFF8C
:100E7600FFFFFFFFFFFFFFFF00000103070F1F3FFC
:100E86003F7F7F7F7FFFFFFFFFFFFFFFFFFFFFFF2C
:100E9600FFFFFFFFFFFFFFFFFFFFFFFFFFFFFFFF5C
:100EA600FFFFFFFFFFFFFFFFFFFFFFFFFFFFFFFF4C
:100EB600FFFFFFFFFFFFFFFFFFFFFFFFFFFFFFFF3C
:100EC600FFFFFFFFFFFFFFFFFFFFFFFFFFFFFFFF2C
:100ED600FFFFFFFFFFFFFFFFFFFFFFFFFFFFFFFF1C
:100EE600FFFFFFFFFFFFFFFFFFFFFFFFFFFFFFFF0C
:100EF600FFFFFFFFFFFFFF7F000080C0E0E0E0F0A4
:100F0600F0F0F0F87C1E1E0E0F070707070F0E1EE7
:100F16003C7CF8F0C08000000000000000000000EB
:100F26000030B0B0B03030303C3E3E3030B0B0B0C3
:100F36003010000080E0F83C1C0C0C0C0C7CF8E037
:100F460000C0F0F000FCFC1C00000000FCFCFC3CB7
:100F56001C1C1C1C1C1C1C180000F0FCFC7C1C1C13
:100F66003C3C3878F0F0E080000000000000C0F063
:100F7600F8FCFCF880000000FCFFFFCF0301000036
:100F86008080C0C0C0808000008080C0C0E0E0E0FB
:100F96000000030303070FFFFEF800000000000037
:100FA600000000FFFFE00000000000E0FC7F0700FB
:100FB60000000000F0FC3E0686868686E6FE3C00C3
:100FC600E0FFFF01FCFF0F00000080FFFFFF1F0E88
:100FD6000E0E0E0E0E0E040000F8FFFF3F0000007E
:100FE60000000080E1FFFF7F0080E0F0FCFFE1C130
:100FF600DDC9C1F0F8F880000003070F0F1E1C7F43
:10100600FFFFE3C3C3E7FF7F3F0703030101001CA4
:101016003C3C3C3C1C1E1F0F070100000000101842
:10102600181818191B19181818181B1B191818182E
:10103600180000041F1F181819191919191800008B
:101046001919181E0F07000000000F0F0F0F0E0EC4
:101056000E0E0E0E0E0C00000C0F0F0F0E0E0E0EC7
:101066000E0E0F07070301080E0F0F030100000005
:10107600000000010F0F0F08000000000000000034
:101086000000010101010000000000000000000056
:10109600000000000000000000000000000000004A
:1010A600000000000000000000000000000000003A
:1010B600000000000000000000000000000000002A
:1010C600000000000000000000000000000000001A
:1010D600000000000000000000000000000000000A
:1010E60000000000000000000000000000000000FA
:0810F6000000000000000000F2
:02379200C10272
:0300230002333174
:10333100C0E0C083C082C0D075D000C006C00730D5
:103341009927C299309822C2989000AAE0FF04F010
:10335100EF3395E0FE74AB2FF58274003EF583E503
:1033610099F09000AAE0540FF0D007D006D0D0D049
:0633710082D083D0E0329F
:10393D00759850438E01438E0475D7C075D6FD43DF
:10394D008E10D2ACD299D2AFD29C75AF017599556C
:01395D002247
:02379400C1036F
:0300430002316F18
:10316F00C0E0C0F0C083C082C0D075D000C000C026
:10317F0001C002C003C004C005C006C007E59A30F5
:10318F00E105539AFDC203E59A30E008539AFEAF6A
:10319F009B122D35D007D006D005D004D003D00216
:0F31AF00D001D000D0D0D082D083D0F0D0E03289
:093BE700759A10C20375AF0122AA
:080003002003FDD2038F9B22B4
:1036E80090011CEBF0A3EAF0A3E9F090011CE0FBC9
:1036F800A3E475F001121664A9F0FA12159EFF12E0
:10370800000390011CE0FBA3E0FAA3E0F912159E68
:0337180070D92243
:103B01007DA57C06ED1D70011C144C70F7EF1F7034
:063B1100011E144E70EAD3
:013B1700228B
:0537960042011F0000CC
:10252D00EB4FFFEAFEE9FDE8FC90009E12180990C2
:10253D00009EE0FCA3E0FDA3E0FEA3E0FF229000DF
:10254D00A4E0FBA3E0FAA3E0F922EBF0A3EAF0A3E9
:10255D00E9F02278081217D690009E121809900003
:10256D009EE0F8A3E0F9A3E0FAA3E022FFE0FBA3CD
:10257D00E475F001121664A9F0FA22A3E0FBA3E0C2
:10258D00FAA3E04A4B22AD07E4FFFE900002E022E1
:10259D00AB07AA067D037F07229000717401F0A39B
:1025AD007400F0A37423F022900079E0FEA3E0FF05
:1025BD00C3900120E09FFD90011FE09EFC22900042
:1025CD0071A3E0FAA3E022A3E0FDA3E0900097CD74
:1025DD00F0A3EDF0229000FBE0FCA3E0FDA3229020
:1025ED000079E0FEA3E022E0FCA3A3A3E0FFE4ADAD
:1025FD000722E99582EA958322ECF0A3EDF01215FE
:03260D009EFF220B
:102E9400EFC39430400CEFD39439500674D02FFF15
:102EA4008022EFC39441400CEFD394465006EF24A4
:102EB400C9FF8010EFC39461400AEFD394665004B5
:102EC400EF24A9FFEF540FC454F0FFEDC394304036
:102ED4000CEDD39439500674D02DFD801EEDC394AF
:102EE400414008EDD394465002800CEDC3946140F8
:102EF4000AEDD394665004ED24A9FDED540F4FFF61
:012F040022AA
:06307500900092122557A5
:10307B00A31218150000000090009212258970050C
:10308B00FFFEFDFC22900095121815000000009029
:10309B00009212257A12159E601E9000951225E55E
:1030AB00E0FEA3E02401FFE43EFEE43DFDE43CFC36
:0E30BB0090009512180980D790009512253FBD
:0130C90022E4
:0635A4009000E012255723
:1035AA009000E61225579000E01225897004FBFA74
:1035BA00F9229000E474FFF5F012166445F0600CED
:1035CA009000E612257AED1215E480E69000E012EA
:0235DA00254E7C
:0135DC0022CC
:0621220090009912255700
:102128009000A112255790009C1225719000A4C917
:102138001225589000991225896005122588700784
:102148007B007A0079002212254BC003C002C0012F
:102158009000A1122550D3D082D083D0E01225FF61
:10216800402A9000A412255090009FE0FEA3E0FFB3
:10217800E92FF9EA3EFAC003C002C001A3122550B4
:10218800D3D082D083D0E01225FF4046E49000A748
:10219800F0A3F090009FE0FEA3E0FF9000A7E0FC12
:1021A800A3E0FDC39FEC9E507912254B8D828C8352
:1021B8001215B7FF9000A112254E8D828C83EF1265
:1021C80015F69000A8E004F070069000A7E004F06F
:1021D80080C190009FE0FFA3E09000A7CFF0A3EF9D
:1021E800F09000A7E0FEA3E0FFD39400EE94004037
:1021F8003112254BEF24FFFFEE34FFFE8F82F5836B
:102208001215B7FD9000A112254E8F828E83ED1214
:1022180015F69000A8E024FFF09000A7E034FFF046
:0822280080BF90009912254EC1
:01223000228B
:06311E009000E9122557A4
:103124009000EF1225579000E912258960051225B9
:103134008870077B007A007900229000EC12254EFB
:1031440012159E60159000EC12257C12159E9000BD
:10315400E9122579EF1215E480E09000E912254E7A
:0A316400E41215E49000EF12254E6E
:01316E00223E
:102F6E0090010112255790010112254E12159EFF58
:102F7E00602490010412254E12159E6019B5071695
:102F8E00900102E475F00112164E900105E475F001
:102F9E000112164E80D090010412254E12159EFF7E
:102FAE003395E0FE90010112254E12159EFD3395CC
:0A2FBE00E0FCC3ED9FFFEC9EFE2235
:1032A30090011812180990011812253F7818121767
:1032B300C3EF1215E490011812253F78101217C3BB
:1032C300900001EF1215F690011812253F780812AD
:1032D30017C3900002EF1215F6900118A3A3A3E001
:0832E300FF900003EF0215F655
:062BB30090009B12255763
:102BB900A31218150000000012159EFFE4FCFDFE8B
:102BC900122536122560FBC000C001C002C0039067
:102BD900009B12254E9000011215B7FFD003D002B9
:102BE900D001D00012252D122560FBC000C001C004
:102BF90002C00390009B12254E9000021215B7FFE8
:102C0900D003D002D001D00012252D122560FBC0BF
:102C190000C001C002C00390009B12254E90000322
:0F2C29001215B7FFD003D002D001D00012252D15
:012C38002279
:063480009001081225571F
:10348600122593B401020F2212395EE4FD12395E51
:1034960090010BE0FD12395E90010CE0FD12395EE1
:1034A60090010812254E1225D41231BE12259D1206
:0434B6002F057F015E
:0134BA0022EF
:07353100900096EDF0AC07DD
:10353800122595B401020F22AD0412395E7D0112E5
:10354800395EE4FD12395E7D0112395E900096E025
:103558007003FD80027D0112395E12259D122F0530
:023568007F01E1
:01356A00223E
:102CB900122593B401020F2212395E7D0212395E88
:102CC900E4FD12395E7D0412395EC006C00790002A
:102CD9009A12253F78181217C3AD07D007D00612EC
:102CE900395EC006C00790009A12253F7810121766
:102CF900C3AD07D007D00612395EC006C0079000E1
:102D09009A12253F78081217C3AD07D007D00612CB
:102D1900395EC006C00790009A1225F4D007D00684
:0B2D290012395E12259D122F057F015C
:012D3400227C
:0634BB0090010E122557DE
:1034C100122593B401020F2212395E7D0312395E77
:1034D100900111E0FD12395E900112E0FD12395E9A
:1034E10090010E12254E1225D41231BE12259D12C5
:0434F1002F057F0123
:0134F50022B4
:0736B400900095EDF0AC075A
:1036BB00122595B401020F22AD0412395E7D04125E
:1036CB00395EE4FD12395E7D0112395E900095E0A2
:0C36DB00FD12395E12259D122F057F01A3
:0136E70022C0
:021EE900AD0743
:101EEB00E49000FFF0A3F0900002E0B401037F0147
:101EFB00229000FFE0FEA3E0FF121FE37D05121FFF
:101F0B00E3E4FD121FEF1225E2E0FEA374FFFFE4F2
:101F1B007BFFFAF9F8C31217B270139000FF7D0123
:101F2B00121FD29000FBA3A3A3E0FD021FB5122545
:101F3B00E2A374FFFFFEE47BFF7AFFF9F8C31217ED
:101F4B00B29000FF7009E0FEA3E0FF7D0280327DBE
:101F5B0004121FD2C006C0079000FB12253F781851
:101F6B001217C3AD07D007D006121FEFC006C0076C
:101F7B009000FB12253F78101217C3AD07D007D086
:101F8B0006121FFBC006C0079000FB12253F780806
:101F9B001217C3AD07D007D006121FFBC006C00730
:101FAB009000FB1225F4D007D00612395E9000FF8B
:101FBB00EEF0A3EFF09000FFE0FAA3E0FB7D037FD0
:061FCB0007122F057F0143
:101FD10022E0FEA3E0FF12395E9000FFEEF0A3EFD6
:101FE100F02212395E9000FFEEF0A3EFF0221239D9
:101FF1005E9000FFEEF0A3EFF02212395E9000FF39
:06200100EEF0A3EFF02257
:073BF900900096122606223F
:073C00009000951226062238
:0C3BBB00900099ECF0A3EDF0122BB32267
:102D3500900078EFF01225CBAE02FF900074A3E06F
:102D4500FAA3E0C39FFFEA9EFEEF64014E605B902D
:102D5500007412254EC003C002C0019000711225F7
:102D650050D3D082D083D0E01225FF401E9000744E
:102D7500A3E0FAA3E0AE02FF1225CB9FFFEA9EFE79
:102D8500C3EF9417EE64809480501F1225CBC39037
:102D9500003A9582EA958340031225A6900078E0D3
:0B2DA500900071122579EF1215E42256
:0C364B00900113122557A3ECF0A3EDF042
:10365700E4FDFCD3900117E09D900116E09C401813
:1036670090011312254E8D828C831215B7FF122DF0
:08367700350DBD00010C80DBE4
:01367F002228
:101AB900E4900079F0A3F0A3F0A3F0C3900120E033
:101AC900941F90011FE0940050261237E0EFD39441
:101AD90000401D12320D90011FE475F001121664C9
:101AE900FC740325F0F58274003CF583EFF080CB9C
:101AF900C3900120E0940790011FE0940050030275
:101B09001C7C1225B5C3ED9407EC94005003021C0C
:101B19004174032FF58274003EF583E0645560102B
:101B290090007AE004F070DA900079E004F080D255
:101B39001225ECFF2404F58274003EF583E064AAC3
:101B4900601090007AE004F070B8900079E004F039
:101B590080B074052FF58274003EF583E06009902A
:101B6900007AE02402021C1C900079E0FCA3E0FD4D
:101B79002407F58274003CF583E090007BF0A3E430
:101B8900F074082DF58274003CF583E02407FFE426
:101B990033FE90007CE02FF090007BE03EF0E0FE09
:101BA900A3E0FFD39426EE9400400890007AE02445
:101BB900038060900079E0FCA3E0FDC3900120E080
:101BC9009DFD90011FE09CFCD3EF9DEE9C50691296
:101BD90025EC2403F974003EFA7B0190007CE02493
:101BE900FFFD90007BE034FFFC1235DDAD0790006E
:101BF9007BE0FAA3E0FB1225ECFF2BFBEE3AFA742B
:101C0900022BF58274003AF583E06D601190007A39
:101C1900E02403F0900079E03400F0021B0B121C61
:101C29007D90007BE0FEA3E0FF90007AE02FF0902A
:101C39000079E03EF0021B0B1225B5F0A3EDF0D3BD
:101C49009400EC9400402C74032FF974003EFA9030
:101C5900009C7401F0A3EAF0A3E9F090011FE0FFF2
:101C6900A3E090009FCFF0A3EFF07B017A00790306
:031C790012212213
:011C7C002245
:10000E001225A69000741225A9E4900002F090002B
:05001E007774FFF022E1
:063C0D00900022E0FF22FE
:0E3B8800E4900022F0FBFA7D037F04022F057B
:063C1300900001E0FF2219
:023B1800AD07F7
:103B1A00E4FF900001F0FE12395EEFFB7A007D03AC
:053B2A007F05022F05DC
:063C1900900077E0FF229D
:093BF0004F46460020004E4F0034
:10379B004E00BB01020202060207020904150116C4
:0137AB00021B
:1038D70090008FE0FBA3E0FAA3E0F9A3E0FCA3E0EC
:1038E700FD22E0FCA3E0FDA3E0FEA3E0FF90009A29
:0338F700021809AB
:033C270002000395
:1026EA009000CAE0FEA3E0FFEE3395E0FDFC12384D
:1026FA00F47F01122CB99000CCE0FFE4FCFDFE123D
:10270A0038F47F021227A91238F47F061227A91279
:10271A0038F47F071227A21218150000001C7F0A3E
:10272A001227A21218150000001C7F0C1227B812DB
:10273A001815000000127F0D122CB97D017F0E12B0
:10274A0036B4E4FD7F0F1236B490009A12181500C1
:10275A000000147F111227B8121815000000147F08
:10276A0012122CB990009A121815000000057F1356
:10277A00122CB990009A121815000000057F141245
:10278A002CB97D017F1512353190009A1218150067
:10279A000000147F16022CB9122CB990009A22124A
:1027AA002CB99000D2E0FEA3E0FFE4FCFD22122C3B
:0527BA00B990009A2215
:10399E00123BBB9000951218099000951238E97FE2
:0D39AE0006122CB9EFB401037F01227F0047
:0139BB0022E9
:1039BC00123BBB9000951218099000951238E97FC4
:0D39CC0007122CB9EFB401037F01227F0028
:0139D90022CB
:103B4300123C00AD077F091236B4EFB401037F01C5
:033B5300227F00CE
:013B5600224C
:1039DA00123BBB9000951218099000951238E97FA6
:0D39EA000A122CB9EFB401037F01227F0007
:0139F70022AD
:1039F800123BBB9000951218099000951238E97F88
:0D3A08000B122CB9EFB401037F01227F00E7
:013A1500228E
:103A1600123BBB9000951218099000951238E97F69
:0D3A26000C122CB9EFB401037F01227F00C8
:013A33002270
:103A3400123BBB9000951218099000951238E97F4B
:0D3A44000D122CB9EFB401037F01227F00A9
:013A51002252
:103A5200123BBB9000951218099000951238E97F2D
:0D3A620011122CB9EFB401037F01227F0087
:013A6F002234
:103A7000123BBB9000951218099000951238E97F0F
:0D3A800012122CB9EFB401037F01227F0068
:013A8D002216
:103A8E00123BBB9000951218099000951238E97FF1
:0D3A9E0013122CB9EFB401037F01227F0049
:013AAB0022F8
:103AAC00123BBB9000951218099000951238E97FD3
:0D3ABC0014122CB9EFB401037F01227F002A
:013AC90022DA
:102FC800123BF9900095EFF0700AC2937BFF7A3BB1
:102FD80079F0801BD2937BFF7A3B79F490009B7445
:102FE80008F0E4FD7F7A122DB07BFF7A3B79F690EA
:102FF800009B7408F0E4FD7F6E122DB07FF47E0113
:10300800123B01900095E0FD7F15123531EFB401B8
:06301800037F01227F008E
:01301E00228F
:103ACA00123BBB9000951218099000951238E97FB5
:0D3ADA0016122CB9EFB401037F01227F000A
:013AE70022BC
:0B27BF0090008FEBF0A3EAF0A3E9F01C
:1027CA00EF24FAB4110040030228889027E375F039
:1027DA0003A4C58325F0C5837302281602281F02A5
:1027EA00288802282802283102283A022843022887
:1027FA004C02288802288802288802285502285D67
:10280A0002286502286D02287502287D1238D7121F
:10281A00399E0228831238D71239BC02288312380B
:10282A00D7123B430228831238D71239DA02288397
:10283A001238D71239F80228831238D7123A1602F8
:10284A0028831238D7123A340228831238D7123A18
:10285A005280261238D7123A70801E1238D7123A8E
:10286A008E80161238D7123AAC800E1238D7122F31
:10287A00C880061238D7123ACA900094EFF0900036
:03288A0094E0FFD8
:01288D002228
:033C2A007F0722EF
:1034F6007B2270223A2200736E6A7A75626E756C50
:10350600756E773768686F00222C2276223A220081
:10351600312E302E3000222C226D223A0030007DD2
:0B35260000000000000000000000009A
:0437AC0041000000D8
:10371B009000A0E0FBA3E0FAA3E022EBF0A3EAF019
:10372B00A3E9F022E0FBA3E475F001121664A9F003
:10373B00FA02159EEEF0A3EFF02440F974003EFA66
:03374B007B0122DD
:03395E0090009E38
:1039610012373FED1215E490009FE004F0700690CD
:0D397100009EE004F090009EE0FEA3E0FF49
:01397E002226
:0931BE0090009412372690009253
:1031C70012373FC002C001A3E0F9A3E0FAA3E090E1
:1031D700009CC9123727900097E0FFA3E090009F5B
:1031E700CFF0A3EFF0D001D002122122900097E098
:1031F700FEA3E0FF900093E02FF0900092E03EF0F6
:05320700E0FEA3E0FF62
:01320C00229F
:0C35DD009000A0123726A3ECF0A3EDF044
:1035E900E4A3F0FFFED39000A4E09F9000A3E09E27
:1035F90040149000A012372FFD9000A5E02DF00F88
:0B360900BF00010E80DF9000A5E0FF75
:013614002293
:1033FF009000A0123726A3ECF0A3EDF012371B4A72
:10340F004B602DA3E07002A3E060259000A374FF32
:10341F00F5F012166445F0601712371BF912159E5E
:10342F00FF123C279000A1E475F00112164E80DBCD
:01343F00226A
:082F050090009EEAF0A3EBF03E
:102F0D0090003A7455F0A374AAF0A3EDF0A3EFF07E
:102F1D0090009EE0FCA3E0FDEC90003EF0EDA3F0F0
:102F2D0090009FE02407F090009EE03400F07B01BC
:102F3D007A00793AA3E024FFFD90009EE034FFFC77
:102F4D001235DDAE0790009EE0FCA3E0FD2439F5BF
:102F5D008274003CF583EFF07B017A00793A0233FD
:012F6D00FF64
:10388A00E4FF900000E0700DFEFD12395E9000002A
:10389A007401F080077E007D0112395EEFFB7A0029
:0738AA007D03E4FF022F057E
:10233E00E4900087F078887C007D017BFF7A357908
:10234E0027FE7F0A1215787A3479F61223D97A3459
:10235E0079F61224197A3479FD1223D97A3479FD5B
:10236E001224197A35790E1223F07A35790E122449
:10237E00307A3579161223F07A3579161224307A9E
:10238E0035791C1224227A35791C1224077A357974
:10239E00231224227A3579231224077BFF7A35798A
:1023AE0025123075900097EEF0A3EFF0900087E0C5
:1023BE00FF7E007BFF7A3579251231BE900087EFC4
:0B23CE00F0FB7A007D037F01022F0569
:1023D9007BFF123075900097EEF0A3EFF090008725
:1023E900E0FF7E007BFF227BFF123075900097EEA5
:1023F900F0A3EFF0900087E0FF7E007BFF229000C2
:1024090087E0FF7E007BFF1231BE900087EFF0224C
:102419001231BE900087EFF0227BFF1230759000D9
:1024290097EEF0A3EFF0221231BE900087EFF02271
:0A3BDD00E4FBFA7D037F02022F05CE
:0537B10090008EEFF016
:1037B600123C2AE4FEEEC39F501D75F002EEA424CF
:1037C600BBF582E5F03400F583E0FD90008EE0FC69
:0937D600ED6C60030E80DEAF060D
:0137DF0022C7
:060046009000871237262E
:10004C0012159E90008AF0FD9000011215B79000D9
:10005C008BF09000021215B790008CF0A3E4F09096
:10006C0000031215B7FF90008DE02FF090008CE08C
:10007C003400F0AF051237B175F002EFA424BCF5D3
:10008C0082E5F03400F583E0FF90008BE06F6003B5
:10009C007F002290008AE0FF90008712371E240414
:1000AC00F9E43AFA90008CE0FDA3E0900092CDF0D8
:0600BC00A3EDF01227BFC6
:0100C200221B
:081C7D0090007DEEF0A3EFF0F2
:101C850090007DE0FEA3E02406F58274003EF58316
:101C9500E0FFB409004003021DB5901CA6F82828F2
:101CA50073021CC1021CC4021CC7021CCA021CE927
:101CB500021CEE021CF5021DB5021DB202388A0295
:101CC500233E023BDD90007DE0FEA3E02409F58282
:101CD50074003EF583E0900077F0E4FBFA7D037F26
:101CE50003022F0590002280039000017401F02269
:101CF50090007DE0FCA3E0FD2407F58274003CF52F
:101D050083E0FE74082DF58274003CF583E0FDED5B
:101D1500FF900084EEF0A3EFF0E4900082F0A3F0D2
:101D2500900084E0FEA3E0FFC3900083E09F900055
:101D350082E09E507BE0FEA3E0FF90007DE0FCA3E7
:101D4500E0FD2FFBEC3EFA740B2BF58274003AF59F
:101D550083E090007FF0A3E4F0740C2BF58274000F
:101D65003AF583E0FF900080E02FF090007FE034AB
:101D750000F074092DF974003CFA7B01900082E0B3
:101D8500FEA3E029F9EA3EFA120046900081EFF041
:101D9500900080E02404FF90007FE03400FE900076
:101DA50083E02FF0900082E03EF0021D251226EA26
:011DB500220B
:1037E00090007412371EF9C003C002C0019000712E
:1037F00012371EF9D082D083D0E06B7008E9658261
:0D3800007003EA658360037F01227F0022D0
:10320D0090007112371EF9C003C002C001A312371E
:10321D001EF9D082D083D0E06B7008E9658270030F
:10322D00EA65836028900074A3E0FAA3E0C39000E0
:10323D003A9582EA9583400E9000747401F0A37460
:0D324D0000F0A37423F090007412372FFFDF
:01325A002251
:1010FE00021446E86480F8E933E83360110460F0C6
:10110E00ED33EC337009E8FCE9FDEAFEEBFF220457
:10111E0060DED3EB9FEA9EE99DE8C2E78CF0C2F752
:10112E0095F0400CE8CCF8E9CDF9EACEFAEBCFFB1E
:10113E0012141185D0F05804700320D5B3E8047052
:10114E00075002B2D502145092D5EC0460F7E4CCED
:10115E00C0E0C398F8603B94186008400DD0E0FBE7
:10116E00021428E4FBFAC9FC8028E830E406E4C93E
:10117E00FBE4CAFCE830E305E4C9CACBFCE854073B
:10118E006010F8C3E913F9EA13FAEB13FBEC13FC46
:10119E00D8F130F52FC3E49CFCEF9BFFEE9AFEEDE9
:1011AE0099FDD0E0FBEF4E4D4C701222DB03021482
:1011BE004DEC2CFCEF33FFEE33FEED33FDED30E75F
:1011CE00EB021428EF2BFFEE3AFEED39FDD0E0FBDB
:1011DE0050130BBB0003021450ED13FDEE13FEEF84
:0811EE0013FFEC13FC021428AE
:1011F600EC4D6011E8497017ED33EC3304600DE4F3
:10120600FCFFFEFD22E933E8330470F802144612AF
:10121600141158046009E4CC2481500628500902B0
:10122600145028400302144DC0E0EB4A7044B980C4
:1012360006D0E0FB02143CEF4E701CBD8008EBFFAD
:10124600EAFEE9FD80EBE98DF0A4FEE5F00212DF8F
:10125600E9CDF9EAFEEBFFEF89F0A4FCE5F0CE89D3
:10126600F0A42EFFE435F0CD89F0A42DFEE435F090
:101276008067EF4E7005BD80D780C3EF8BF0A4ACBE
:10128600F0EE8BF0A42CFCE435F0F8EF8AF0A42CF9
:10129600E5F038FCE433CB8DF0A42CFCE5F03BF80C
:1012A600EE8AF0A42CFCE5F038F8E433CF89F0A4FC
:1012B6002CFCE5F038CF3400CE89F0A42FFFE5F002
:1012C6003EFEE433C98DF0A42EFEE5F039CD8AF05A
:1012D600A42FFFE5F03EFEE43DFD33D0E0FB5007D2
:1012E6000BBB000F021450EC2CFCEF33FFEE33FE69
:0612F600ED33FD02142897
:1012FC00021450EC5D046005E859047003021446B6
:10130C00121411580460F6EC4860F2EC7004FDFE07
:10131C00FF22C860DB2481C85009C39860025006C4
:10132C0002144D9850CAF582E9294B4A7005AB82DC
:10133C0002143C75F0007C1A7880C3EF9BEE9AED9A
:10134C0099400DC3EF9BFFEE9AFEED99FDE842F03C
:10135C00DC23ACF0D0E0FFD0E0FED0E0FDAB82208F
:10136C00E7101BEB60BAEC2CFCEF33FFEE33FEED19
:10137C0033FD021428E803F830E705C0F075F000DF
:10138C00EF2FFFEE33FEED33FD40B830E7C280AAFD
:10139C0075F020800E75F010800575F0087D007ECC
:1013AC00007F003392D530D5031217A4EC334010D4
:1013BC00EF33FFEE33FEED33FDEC33FCD5F0ED22D5
:0E13CC00E5F0247EA2D513CC92E7CDCEFF2211
:1013DA00EDD2E7CD33EC3392D524814006E4FFFE0B
:1013EA00FDFC22FCE4CFCECDCC24E0501174FF806A
:1013FA00EDC3CC13CCCD13CDCE13CECF13CF047007
:07140A00F030D5DE0217A44B
:1029FB0033DA929E35B16011377FE5FE3921848938
:102A0B003AAEC3FF3C1D955B3D6358473E75FDF0E9
:102A1B003F3172183F800000C2D502145002144699
:102A2B00BD80FA50F302144DED33EC330460F17BAF
:102A3B003B7AAA79B8783F1211F6ED33EC3392D585
:102A4B00247B5011A2D570DB500BED448024045035
:102A5B0004A2D580CEEFFBEEFAEDF9ECF81213DA07
:102A6B00EFF582F404FC1213A6121105C082902913
:102A7B00FB740912146AED33CC33D0F092D525F0E8
:0A2A8B00A2D57001C313CC13FD2285
:10141100E9D2E7C933E833F892D5EDD2E7CD33EC21
:0714210033FC5002B2D5229A
:10142800EC30E7100FBF000C0EBE00080DBD000425
:101438000BEB6014A2D5EB13FCED92E7FD2274FFD1
:10144800FCFDFEFF22E480F8A2D574FF13FC7D802A
:03145800E480EF3E
:10145B00C0E0EFFBEEFAEDF9ECF81211F6D0E0F587
:10146B00F0EFFBEEFAEDF9ECF81217E9A3A3A3A347
:10147B00E8C0E0E9C0E0EAC0E0EBC0E0C0F0121168
:10148B00F61217F9A3A3A3A3121105D0F0D0E0FB1A
:0D149B00D0E0FAD0E0F9D0E0F8D5F0D4228E
:03000000022B27A9
:0C2B2700787FE4F6D8FD758120022B6E4B
:1014A800E709F608DFFA8046E709F208DFFA803E26
:1014B80088828C83E709F0A3DFFA8032E309F60813
:1014C800DFFA8078E309F208DFFA807088828C837B
:1014D800E309F0A3DFFA806489828A83E0A3F6082F
:1014E800DFFA805889828A83E0A3F208DFFA804C09
:1014F80080D280FA80C680D4806980F280338010E0
:1015080080A680EA809A80A880DA80E280CA803348
:1015180089828A83ECFAE493A3C8C582C8CCC583C0
:10152800CCF0A3C8C582C8CCC583CCDFE9DEE78090
:101538000D89828A83E493A3F608DFF9ECFAA9F00F
:10154800EDFB2289828A83ECFAE0A3C8C582C8CC65
:10155800C583CCF0A3C8C582C8CCC583CCDFEADE7E
:10156800E880DB89828A83E493A3F208DFF980CCE0
:1015780088F0EF60010E4E60C388F0ED2402B404D9
:101588000050B9F582EB2402B4040050AF23234580
:0615980082239014F87399
:10159E00BB010689828A83E0225002E722BBFE024B
:0915AE00E32289828A83E493227E
:1015B700BB010CE58229F582E5833AF583E02250E9
:1015C70006E92582F8E622BBFE06E92582F8E22233
:0D15D700E58229F582E5833AF583E493224D
:1015E400BB010689828A83F0225002F722BBFE01E6
:0215F400F322E0
:1015F600F8BB010DE58229F582E5833AF583E8F02B
:10160600225006E92582C8F622BBFE05E92582C8D6
:02161600F222BE
:10161800C2D5EC30E709B2D5E4C39DFDE49CFCEEED
:1016280030E715B2D5E4C39FFFE49EFE121846C307
:10163800E49DFDE49CFC800312184630D507C3E402
:061648009FFFE49EFE225C
:10164E00C5F0F8A3E028F0C5F0F8E5821582700227
:06165E001583E038F022C4
:10166400A3F8E0C5F025F0F0E58215827002158339
:06167400E0C838F0E82296
:10167A00E88FF0A4CC8BF0A42CFCE98EF0A42CFC0F
:10168A008AF0EDA42CFCEA8EF0A4CDA8F08BF0A48D
:10169A002DCC3825F0FDE98FF0A42CCD35F0FCEBEC
:1016AA008EF0A4FEA9F0EB8FF0A4CFC5F02ECD39B1
:0F16BA00FEE43CFCEAA42DCE35F0FDE43CFC221E
:1016C90075F008758200EF2FFFEE33FECD33CDCCD8
:1016D90033CCC58233C5829BED9AEC99E58298405B
:1016E9000CF582EE9BFEED9AFDEC99FC0FD5F0D638
:1016F900E4CEFBE4CDFAE4CCF9A88222B800C1B962
:101709000059BA002DEC8BF084CFCECDFCE5F0CB9F
:10171900F97818EF2FFFEE33FEED33FDEC33FCEBD8
:1017290033FB10D703994004EB99FB0FD8E5E4F993
:10173900FA227818EF2FFFEE33FEED33FDEC33FC80
:10174900C933C910D7059BE99A4007EC9BFCE99A74
:10175900F90FD8E0E4C9FAE4CCFB2275F010EF2FB9
:10176900FFEE33FEED33FDCC33CCC833C810D707B9
:101779009BEC9AE899400AED9BFDEC9AFCE899F8F4
:0E1789000FD5F0DAE4CDFBE4CCFAE4C8F92287
:0D179700CFF4CFCEF4CECDF4CDCCF4CC22E7
:0E17A400C3E49FFFE49EFEE49DFDE49CFC2256
:1017B200EB9FF5F0EA9E42F0E99D42F0E89C45F08D
:0117C2002204
:1017C300E8600FECC313FCED13FDEE13FEEF13FF04
:0317D300D8F12228
:1017D600E8600FEFC333FFEE33FEED33FDEC33FC71
:0317E600D8F12215
:1017E900E493FC740193FD740293FE740393FF2246
:1017F900E493F8740193F9740293FA740393FB2246
:0C180900ECF0A3EDF0A3EEF0A3EFF02252
:10181500A8828583F0D083D08212182C12182C123E
:10182500182C12182CE473E493A3C583C5F0C58363
:10183500C8C582C8F0A3C583C5F0C583C8C582C81D
:011845002280
:102B3300023377E493A3F8E493A34003F68001F20E
:102B430008DFF48029E493A3F85407240CC8C333A3
:102B5300C4540F4420C8834004F456800146F6DF72
:102B6300E4800B0102040810204080903780E47E4B
:102B7300019360BCA3FF543F30E509541FFEE49367
:102B8300A360010ECF54C025E060A840B8E493A32E
:102B9300FAE493A3F8E493A3C8C582C8CAC583CA59
:102BA300F0A3C8C582C8CAC583CADFE9DEE780BE11
:0137B0000018
:10184600BC000BBE0029EF8DF084FFADF022E4CC86
:10185600F875F008EF2FFFEE33FEEC33FCEE9DEC4F
:10186600984005FCEE9DFE0FD5F0E9E4CEFD22ED95
:10187600F8F5F0EE8420D21CFEADF075F008EF2FDF
:10188600FFED33FD4007985006D5F0F222C398FDD0
:051896000FD5F0EA226D
:00000001FF
